:10000000F5C0000023C1000021C100001FC1000095
:100010001DC100001BC1000019C1000017C1000074
:1000200015C1000013C1000011C100000FC1000084
:100030000DC100000BC1000009C1000007C1000094
:1000400005C100001DC7000001C10000FFC0000085
:10005000FDC00000FBC00000F9C0000040C6000069
:10006000F5C0000006C60000DBC50000EFC00000C0
:10007000EDC00000EBC00000E9C00000E7C00000D8
:10008000D2C60000E3C00000E1C00000DFC00000F5
:10009000DDC00000DBC00000D9C00000D7C00000F8
:1000A000D5C00000D3C0000091C60000CFC0000042
:1000B000CDC00000CBC00000C9C000005AC600007F
:1000C000C5C00000C3C00000C1C00000BFC0000028
:1000D000BDC00000BBC00000B9C00000B7C0000038
:1000E000B5C0000000000A0B02090C0D0E08070342
:1000F00004010000000000000000000000000000FB
:1001000000000000000000000000000000000000EF
:1001100012111000000000000000000000000000AC
:100120000000000000000000000000002200250088
:1001300028002B002E0031003400020100000501D0
:1001400008010B0100002100240027002A002D00D7
:100150003000330001010000040107010A01050518
:100160000505070508080808020202020A0A08082D
:10017000040404040101010101010101030303035B
:1001800003030303040707070C0C0C0C0C0C0C0CEA
:100190000202020206060606060606060B0B0B0BFB
:1001A0000B0B0B0B01021020200808102040102020
:1001B000408002010201080402010102040810202B
:1001C0004080804020100804020180040201804029
:1001D0002010080402010804020101020408102092
:1001E000408001020408102040806D0711241FBECA
:1001F000CFEFD1E2DEBFCDBF00E00CBF12E0A0E048
:10020000B2E0E0E4F4E100E00BBF02C007900D9221
:10021000AC3CB107D9F724E0ACECB2E001C01D92D0
:10022000AE31B207E1F710E0C6EFD0E000E006C063
:1002300021970109802FFE010E94120AC53FD107B4
:1002400080E00807A9F7CDD60C941E0AD9CE90E01D
:10025000FC01EC55FE4F2491825A9E4FFC01849183
:10026000882399F090E0880F991FFC01EC5BFE4F0A
:10027000A591B491FC01E65DFE4F859194918FB7F5
:10028000F894EC91E22BEC938FBF0895CF92DF921C
:10029000EF92FF92DC01A03282E0B807D4F5A53BD3
:1002A000B10514F0A4EBB0E040911C0428E830E064
:1002B000241B310947FD3395220F331F220F331FB3
:1002C0006901330FEE08FF0840911D0428E532E074
:1002D000241B310947FD3395220F331F220F331F93
:1002E000032E000C440B550B2C193D094E095F09D8
:1002F000B7FF02C0B0E0A0E00E94CF0924EB30E0DD
:1003000040E050E00E94A909C20ED31EE41EF51E73
:10031000D601E0911B04E03380F520911C0488E8AD
:1003200090E0821B910927FD9395880F991F880FF4
:10033000991FA817B90784F020911D0488E592E061
:10034000821B910927FD9395880F991F880F991F8C
:10035000A817B9070CF4CD010297880F991F4FB762
:10036000F8942E2F30E0F901EE0FFF1FE20FF31F7C
:10037000E258FC4F928381834FBFFF90EF90DF9054
:10038000CF900895AF92BF92CF92DF92EF92FF92FB
:100390000F931F93CF93DF936C017B018B01040FAD
:1003A000151FEB015E01AE18BF08C017D10759F049
:1003B0006991D601ED91FC910190F081E02DC6018B
:1003C0001995892B79F7C501DF91CF911F910F9175
:1003D000FF90EF90DF90CF90BF90AF900895FC0119
:1003E000538D448D252F30E0842F90E0821B930B9A
:1003F000541710F0CF96089501970895FC01918D40
:10040000828D981761F0A28DAE0FBF2FB11D5D9642
:100410008C91928D9F5F9F73928F90E008958FEFE4
:100420009FEF0895FC01918D828D981731F0828D98
:10043000E80FF11D858D90E008958FEF9FEF0895EF
:10044000FC01918D228D892F90E0805C9F4F821B53
:1004500091098F739927089581EE92E0F1DF21E0F1
:10046000892B09F420E0822F0895FC01A48DA80FA8
:10047000B92FB11DA35ABF4F2C91848D90E00196E6
:100480008F739927848FA689B7892C93A089B18906
:100490008C91837080648C93938D848D981306C0A7
:1004A0000288F389E02D80818F7D80830895EF920B
:1004B000FF920F931F93CF93DF93EC0181E0888F1E
:1004C0009B8D8C8D98131AC0E889F989808185FFEE
:1004D00015C09FB7F894EE89FF896083E889F98990
:1004E00080818370806480839FBF81E090E0DF9192
:1004F000CF911F910F91FF90EF900895F62E0B8DE5
:1005000010E00F5F1F4F0F731127E02E8C8D8E119F
:100510000BC00FB607FCFACFE889F989808185FF07
:10052000F5CFCE01A2DFF2CFEB8DEC0FFD2FF11D49
:10053000E35AFF4FF0829FB7F8940B8FEA89FB894B
:1005400080818062D0CFCF93DF93EC01888D8823A8
:10055000B1F0AA89BB89E889F9898C9185FD03C02E
:10056000808186FD0CC00FB607FCF7CF8C9185FF0C
:10057000F2CF808185FFEDCFCE0177DFEACFDF912B
:10058000CF910895282F30E0F901EC51FF4F94915D
:10059000F901EC55FE4F4491225A3E4FF901249146
:1005A000222309F434C0992309F191509231F0F4D7
:1005B000E92FF0E08827E152FD4F8F4F33C710033A
:1005C0001403F10208030C03F60217031D032103B1
:1005D00027032B032F0335033903F6023D0343039F
:1005E0004703809180008F7780938000E22FF0E0B6
:1005F000EE0FFF1FE65DFE4FA591B4918FB7F89403
:10060000EC91611148C040954E234C938FBF0895E3
:10061000809180008F7DE8CF80918000877FE4CF3C
:1006200084B58F7784BDE2CF84B58F7DFBCF809179
:10063000B0008F778093B000D9CF8091B0008F7DCC
:10064000F9CF809190008F7780939000CFCF8091E9
:1006500090008F7DF9CF80919000877FF5CF8091BA
:10066000A0008F778093A000C1CF8091A0008F7DE4
:10067000F9CF8091A000877FF5CF809120018F77FF
:1006800080932001B3CF809120018F7DF9CF80919D
:100690002001877FF5CF4E2BB8CF1F93CF93DF93E9
:1006A000182FEB01D4DD209731F460E0812FDF912A
:1006B000CF911F9167CFCF3FD10511F461E0F6CF05
:1006C000E12FF0E0EC51FF4FE491E150E23108F00E
:1006D000B2C0F0E08827E159FC4F8F4FA3C68103D9
:1006E00089038E039803A2031B04AC03B403BC0369
:1006F000C603D003DA03E903F3031B04FD03070475
:10070000110484B5806884BDC7BDDF91CF911F916E
:10071000089584B5806284BDC8BDF7CF8091800004
:10072000806880938000D0938900C0938800EDCFCB
:1007300080918000806280938000D0938B00C09372
:100740008A00E3CF80918000886080938000D093FE
:100750008D00C0938C00D9CF8091B00080688093C9
:10076000B000C093B300D1CF8091B000806280937D
:10077000B000C093B400C9CF80919000806880938E
:100780009000D0939900C0939800BFCF80919000C3
:10079000806280939000D0939B00C0939A00B5CF65
:1007A00080919000886080939000D0939D00C093CA
:1007B0009C00ABCF8091A00080688093A0008091C6
:1007C000A0008F7B8093A000D093A900C093A800C5
:1007D0009CCF8091A00080628093A000D093AB005A
:1007E000C093AA0092CF8091A00088608093A0005F
:1007F000D093AD00C093AC0088CF80912001806879
:1008000080932001D0932901C09328017ECF80914D
:100810002001806280932001D0932B01C0932A0194
:1008200074CF80912001886080932001D0932D01A6
:10083000C0932C016ACFC038D1050CF03FCF35CF23
:10084000CF93DF93C1E1D4E060E089819BDE60E07B
:100850008A8198DE6FEF70E088811FDF1986DF9153
:10086000CF910895AF92BF92CF92DF92EF92FF9215
:100870000F931F93CF93DF936B017A01EC01C35366
:10088000DD4F28813CE0389F8001399F100D1124F5
:10089000A0900E04B12C27FF1FC0FB011182108213
:1008A00088818F5F888388819801280F311D87FD9B
:1008B0003A95F6012A153B051CF488818C30BCF171
:1008C00080819181049680349C4908F471C0F601BE
:1008D0008081918104966EC088819801280F311D16
:1008E00087FD3A952A153B05DCF68881A801480F5B
:1008F000511D87FD5A95FA01EE0FFF1FE40FF51FFA
:10090000E258FC4F808186FFCBCF8881F801E80F49
:10091000F11D87FDFA95CF01EE0FFF1FE80FF91FBC
:10092000E258FC4F808160E08F732CDEB9CF80816C
:1009300091812881A801420F511D27FD5A959A01E6
:10094000FA01EE0FFF1FE20FF31FE258FC4F218167
:100950003281820F931FF7019183808388819801F0
:10096000280F311D87FD3A95F901EE0FFF1FE20FA9
:10097000F31FE258FC4F808186FF21C08881080F59
:10098000111D87FD1A95F801EE0FFF1FE00FF11FF3
:10099000E258FC4F808161E08F73DF91CF911F910E
:1009A0000F91FF90EF90DF90CF90BF90AF90EACD86
:1009B00080E49CE9F701918380838FEF8883DF9146
:1009C000CF911F910F91FF90EF90DF90CF90BF904C
:1009D000AF9008952FD5FC0101900020E9F73197E1
:1009E000AF01481B590BBC0181EE92E0CBCCF3DF89
:1009F00081EE92E0A8CDEFDF82E192E0ECDF81EEC4
:100A000092E0A1CDCF92DF92EF92FF920F931F93CE
:100A1000CF93DF93CDB7DEB7A1970FB6F894DEBFC3
:100A20000FBECDBF282F30E050E040E019A28E016C
:100A30000F5D1F4F8AE0C82ED12CE12CF12CCA018A
:100A4000B901A7019601B1D4605DF80162938F01ED
:100A5000211531054105510591F7309711F0CF016E
:100A6000BADF82E192E0B7DF81EE92E06CDDA19621
:100A70000FB6F894DEBF0FBECDBFDF91CF911F91AF
:100A80000F91FF90EF90DF90CF9008959F92AF92DB
:100A9000BF92CF92DF92EF92FF920F931F93CF936B
:100AA000DF9399249394C2E0D0E001E010E083E06A
:100AB000E82EF12C95E0C92ED12C24E0A22EB12CE9
:100AC00081EE92E0BDDC892B09F473C081EE92E0E7
:100AD00095DC8093CC0285E192E089DF8091CC02A5
:100AE00091DF9091DC028091CC02911155C08C3045
:100AF00079F180F48A30F9F08B3011F7B092DF028F
:100B0000A092DE029092DC0281EE92E01CDD82E493
:100B100092E01CC08E30A1F138F18F3089F6F0924E
:100B2000DF02E092DE029092DC0281EE92E00BDDC9
:100B300087EA92E00BC0D092DF02C092DE02909270
:100B4000DC0281EE92E0FFDC8CE292E054DFB8CF71
:100B50001092DF021092DE029092DC0281EE92E0AF
:100B6000F2DC89E592E0F2CF1093DF020093DE021F
:100B70009092DC0281EE92E0E6DC80E792E0E6CF44
:100B8000D093DF02C093DE029092DC0281EE92E00D
:100B9000DADC8BE892E0DACF8093DD028CE192E040
:100BA00026DF8091CC022EDF9092E0021092DC02D0
:100BB00087CFDF91CF911F910F91FF90EF90DF9042
:100BC000CF90BF90AF909F90089546DC81115EDF7B
:100BD00080E090E0892B49F080E090E0892B29F0BB
:100BE0000E94000081110E94000080E090E0892BAB
:100BF00049F080E090E0892B29F00E9400008111EB
:100C00000E94000080E090E0892B49F080E090E0B5
:100C1000892B29F00E94000081110C940000089596
:100C20001F920F920FB60F9211240BB60F922F93B3
:100C30003F934F935F936F937F938F939F93AF9364
:100C4000BF93EF93FF9381EE92E00FDCFF91EF9162
:100C5000BF91AF919F918F917F916F915F914F91D4
:100C60003F912F910F900BBE0F900FBE0F901F90D2
:100C700018951F920F920FB60F9211240BB60F9278
:100C80002F938F939F93EF93FF93E091F102F09155
:100C9000F2028081E091F702F091F80282FD1DC01E
:100CA00090818091FA028F5F8F732091FB028217EF
:100CB00041F0E091FA02F0E0EF51FD4F958F809303
:100CC000FA02FF91EF919F918F912F910F900BBEA0
:100CD0000F900FBE0F901F9018958081F2CF1F923A
:100CE0000F920FB60F9211242F933F938F939F93E0
:100CF000AF93BF938091D6029091D702A091D80272
:100D0000B091D9023091D50223E0230F2D3758F549
:100D10000196A11DB11D2093D5028093D602909318
:100D2000D702A093D802B093D9028091D1029091BA
:100D3000D202A091D302B091D4020196A11DB11D9F
:100D40008093D1029093D202A093D302B093D402A5
:100D5000BF91AF919F918F913F912F910F900FBEB7
:100D60000F901F90189526E8230F0296A11DB11D24
:100D7000D2CF1F920F920FB60F9211240BB60F9283
:100D80002F933F934F935F936F937F938F939F9393
:100D9000AF93BF93EF93FF9348E251E064E271E0B9
:100DA00090E080E05FDDFF91EF91BF91AF919F9167
:100DB0008F917F916F915F914F913F912F910F9004
:100DC0000BBE0F900FBE0F901F9018951F920F92A1
:100DD0000FB60F9211240BB60F922F933F934F93A0
:100DE0005F936F937F938F939F93AF93BF93EF9393
:100DF000FF9348EA50E064EA70E083E090E032DD7F
:100E0000FF91EF91BF91AF919F918F917F916F91E2
:100E10005F914F913F912F910F900BBE0F900FBE9E
:100E20000F901F9018951F920F920FB60F921124DA
:100E30000BB60F922F933F934F935F936F937F93D4
:100E40008F939F93AF93BF93EF93FF9348E950E045
:100E500064E970E082E090E005DDFF91EF91BF91E1
:100E6000AF919F918F917F916F915F914F913F9142
:100E70002F910F900BBE0F900FBE0F901F901895E3
:100E80001F920F920FB60F9211240BB60F922F9351
:100E90003F934F935F936F937F938F939F93AF9302
:100EA000BF93EF93FF9348E850E064E870E081E07F
:100EB00090E0D8DCFF91EF91BF91AF919F918F911E
:100EC0007F916F915F914F913F912F910F900BBE4A
:100ED0000F900FBE0F901F9018951092E402109281
:100EE000E30288EE93E0A0E0B0E08093E502909307
:100EF000E602A093E702B093E80284E092E09093C8
:100F0000E2028093E10285EC90E09093EE02809300
:100F1000ED0284EC90E09093F0028093EF0280EC7D
:100F200090E09093F2028093F10281EC90E0909334
:100F3000F4028093F30282EC90E09093F6028093A7
:100F4000F50286EC90E09093F8028093F7021092FD
:100F5000FA021092FB021092FC021092FD028091A4
:100F60000E048033D0F591E0980F90930E04809397
:100F70001B0490E0FC01EE0FFF1FE80FF91FE25881
:100F8000FC4F88EB9BE09283818385E08093110482
:100F900084E08093120483E08093130484E68093BA
:100FA000140410921A0481E080931904109215041D
:100FB00010921604109217041092180485E047D975
:100FC0008091120444D98091130441D989E690E0BC
:100FD0009093100480930F0408958FEF80931B0467
:100FE000D4CF789484B5826084BD84B5816084BD9B
:100FF00085B5826085BD85B5816085BD80916E00B7
:10100000816080936E0010928100809181008260E7
:101010008093810080918100816080938100809124
:1010200080008160809380008091B1008460809313
:10103000B1008091B00081608093B00080919100F8
:1010400082608093910080919100816080939100F3
:10105000809190008160809390008091A1008260D7
:101060008093A1008091A10081608093A100809174
:10107000A00081608093A000809121018260809314
:1010800021018091210181608093210180912001C3
:1010900081608093200180917A00846080937A003F
:1010A00080917A00826080937A0080917A008160DA
:1010B00080937A0080917A00806880937A00109201
:1010C000C100E091F102F091F20282E08083E091B0
:1010D000ED02F091EE021082E091EF02F091F00249
:1010E00080E180831092F902E091F502F091F6021E
:1010F00086E08083E091F302F091F40280818061C8
:101100008083E091F302F091F40280818860808313
:10111000E091F302F091F402808180688083E09195
:10112000F302F091F40280818F7D808380911B0413
:10113000803308F04FC08DE08AD880911B04282F9F
:1011400030E0F901EE0FFF1FE20FF31FE258FC4FF2
:101150009081907C9D60908310921C0410921D04DD
:101160002CE0622F53D1829FB001112430E020E0A7
:10117000AB01420F531FFA01EE0FFF1FE40FF51FE3
:10118000E258FC4F908196FD17C02F5F3F4F2C30E7
:10119000310571F7813009F045C01092800082E07E
:1011A000809381001092850010928400B19A809102
:1011B0006F00826080936F00E0911B048E2F90E09F
:1011C000FC01EE0FFF1FE80FF91FE258FC4F808172
:1011D0008064808380910F049091100457D81092FE
:1011E000140401E010E08091E0028823C9F08091AE
:1011F000DE029091DF028230910509F454C008F0BC
:101200003DC0009709F455C0019709F44CC081EE28
:1012100092E099D91092E0021092DD021092DC0265
:10122000D4DCE1CF823061F4109290008093910081
:10123000109295001092940088BB80937100BCCFEF
:10124000833069F41092A00082E08093A100109294
:10125000A5001092A40089BB80937200ADCF8111CC
:10126000ABCF1092200182E08093210110922501E2
:10127000109224018ABB809373009ECF8430910525
:10128000B1F008F44CC0059709F0C1CFC091DD0260
:101290008C2F90E0009709F03AC080910F04909154
:1012A00010040E9446018091DD0290E093DBC8DAD1
:1012B000AECF8091DD0280931404C091DA02CC237A
:1012C000A1F0C13009F0A3CF60E0809112045AD997
:1012D00061E08091130456D96091140470E080910C
:1012E0001104DBD9C0931A0492CF61E080911204FB
:1012F00049D960E08091130445D96091140470E0ED
:1013000080911104CAD981E080931A0480CF0E9491
:10131000460182EC92E06BDB8C2F74DBC4CF8091B2
:10132000DA029091DB022091DD02211109C0892BA4
:1013300009F46DCF85DA1092DB021092DA0267CFE2
:10134000019709F464CF7CDA1093DB020093DA0290
:101350005ECF052E97FB16F400940FD057FD05D0F5
:1013600024D007FC02D046F408C050954095309533
:1013700021953F4F4F4F5F4F089590958095709501
:1013800061957F4F8F4F9F4F089531D0A59F900D4E
:10139000B49F900DA49F800D911D11240895B7FF57
:1013A000F4CFF3DF821B930B0895A1E21A2EAA1B40
:1013B000BB1BFD010DC0AA1FBB1FEE1FFF1FA21705
:1013C000B307E407F50720F0A21BB30BE40BF50B02
:1013D000661F771F881F991F1A9469F7609570958B
:1013E000809590959B01AC01BD01CF010895A29F0E
:1013F000B001B39FC001A39F700D811D1124911DE9
:10140000B29F700D811D1124911D0895991B79E0E3
:1014100004C0991F961708F0961B881F7A95C9F784
:1014200080950895EE0FFF1F881F8BBF0790F691E0
:10143000E02D199481E090E0F89400C0F894FFCF7B
:10144000000000005702C201EF01A3022002FE01CA
:1014500012020D0A0073657269616C206461746127
:101460002072656365697665643A20005475726E12
:1014700020636F6D6D616E6420726563656976656A
:1014800064004272616B6520636F6D6D616E6420F4
:101490007265636569766564004472697665206388
:1014A0006F6D6D616E642072656365697665640059
:1014B0005475726E204C65667420436F6D6D616E5D
:1014C00064205265636569766564005475726E20A8
:1014D000726967687420636F6D6D616E64207265F8
:1014E00063656976656400646972656374696F6ECB
:1014F00020636F6D6D616E642072656365697665EA
:0C15000064005475726E696E673A20003A
:020000023000CC
:10E000000D9489F10D94B2F10D94B2F10D94B2F129
:10E010000D94B2F10D94B2F10D94B2F10D94B2F1F0
:10E020000D94B2F10D94B2F10D94B2F10D94B2F1E0
:10E030000D94B2F10D94B2F10D94B2F10D94B2F1D0
:10E040000D94B2F10D94B2F10D94B2F10D94B2F1C0
:10E050000D94B2F10D94B2F10D94B2F10D94B2F1B0
:10E060000D94B2F10D94B2F10D94B2F10D94B2F1A0
:10E070000D94B2F10D94B2F10D94B2F10D94B2F190
:10E080000D94B2F10D94B2F10D94B2F10D94B2F180
:10E090000D94B2F10D94B2F10D94B2F10D94B2F170
:10E0A0000D94B2F10D94B2F10D94B2F10D94B2F160
:10E0B0000D94B2F10D94B2F10D94B2F10D94B2F150
:10E0C0000D94B2F10D94B2F10D94B2F10D94B2F140
:10E0D0000D94B2F10D94B2F10D94B2F10D94B2F130
:10E0E0000D94B2F141546D656761323536300041AF
:10E0F000726475696E6F206578706C6F72657220DE
:10E1000073746B3530305632206279204D4C530099
:10E11000426F6F746C6F616465723E004875683F52
:10E1200000436F6D70696C6564206F6E203D200048
:10E130004350552054797065202020203D20005FF9
:10E140005F4156525F415243485F5F3D2000415658
:10E1500052204C696243205665723D20004743437C
:10E160002056657273696F6E203D20004350552024
:10E1700049442020202020203D20004C6F7720663D
:10E18000757365202020203D20004869676820665F
:10E190007573652020203D200045787420667573D6
:10E1A00065202020203D20004C6F636B2066757336
:10E1B000652020203D20004D617220203720323024
:10E1C000313300312E362E3800342E332E350056A2
:10E1D00023202020414444522020206F7020636F70
:10E1E00064652020202020696E73747275637469E1
:10E1F0006F6E2061646472202020496E74657272B3
:10E20000757074006E6F20766563746F7200726A49
:10E210006D702020006A6D70200057686174207056
:10E220006F72743A00506F7274206E6F7420737541
:10E2300070706F72746564004D7573742062652030
:10E2400061206C6574746572002000577269747483
:10E25000696E672045450052656164696E672045B7
:10E26000450045452065727220636E743D00504F35
:10E27000525400303D5A65726F2061646472003FF1
:10E280003D43505520737461747300403D454550C3
:10E29000524F4D207465737400423D426C696E6B41
:10E2A000204C454400453D44756D70204545505215
:10E2B0004F4D00463D44756D7020464C415348001B
:10E2C000483D48656C70004C3D4C69737420492F83
:10E2D0004F20506F72747300513D51756974005234
:10E2E0003D44756D702052414D00563D73686F7707
:10E2F00020696E7465727275707420566563746FF0
:10E30000727300593D506F727420626C696E6B00BD
:10E310002A0011241FBECFEFD1E2DEBFCDBF01E046
:10E320000CBF12E0A0E0B2E0EEE1FDEF03E00BBFB6
:10E3300002C007900D92A030B107D9F712E0A0E01B
:10E34000B2E001C01D92AE30B107E1F70F9460F367
:10E350000D948DFE01E20EBF0FEF0DBF11241FBE05
:10E360000D9460F30D9400F020E030E040ED57E0B4
:10E3700005C0FA013197F1F72F5F3F4F2817390792
:10E38000C0F308959C01260F311DC901A0E0B0E043
:10E390002F5F3F4FABBFFC018791882361F08093D3
:10E3A000C6008091C00086FFFCCF8091C0008064D1
:10E3B0008093C000EACF08958DE08093C6008091DD
:10E3C000C00086FFFCCF8091C00080648093C000B5
:10E3D0008AE08093C6008091C00086FFFCCF8091C8
:10E3E000C00080648093C00008950F94C2F10F9420
:10E3F000DCF10895FC019081992359F09093C600B7
:10E400008091C00086FFFCCF8091C0008064809323
:10E41000C0003196992379F70895282F982F929567
:10E420009F70892F805D8A3308F0895F8093C600D2
:10E430008091C00086FFFCCF8091C00080648093F3
:10E44000C000822F8F70982F905D9A3308F0995FEB
:10E450009093C6008091C00086FFFCCF8091C000E1
:10E4600080648093C00008959C01FB01853691056E
:10E470001CF46330710594F0C90164E670E00F94F8
:10E480002EFE605D7F4F6093C6008091C00086FFC6
:10E49000FCCF8091C00080648093C0002B30310598
:10E4A00014F43297B4F0C90164E670E00F942EFEC4
:10E4B0006AE070E00F942EFE605D7F4F6093C600AF
:10E4C0008091C00086FFFCCF8091C0008064809363
:10E4D000C000C9016AE070E00F942EFEC0968093E0
:10E4E000C6008091C00086FFFCCF8091C000806490
:10E4F0008093C00008951F93182F8EE692EE60E07F
:10E500000F94C2F11093C6008091C00086FFFCCF2B
:10E510008091C00080648093C0000F94DCF11F9153
:10E5200008952F923F924F925F926F927F928F92B7
:10E530009F92AF92BF92CF92DF92EF92FF920F9392
:10E540001F93DF93CF93CDB7DEB762970FB6F894E2
:10E55000DEBF0FBECDBF382E622ECA01DB015C01CB
:10E560006D01772420E2222E2E010894411C511CBB
:10E570008BC081E0A81680E0B80681E0C80680E084
:10E58000D80628F0C601AA27BB270F940DF2BB2797
:10E59000AD2D9C2D8B2D0F940DF28A2D0F940DF225
:10E5A0002092C6008091C00086FFFCCF8091C00001
:10E5B00080648093C0009DE29093C6008091C0006B
:10E5C00086FFFCCF8091C00080648093C0002092C1
:10E5D000C6008091C00086FFFCCF8091C00080649F
:10E5E0008093C00019828601750188249924A1E0D6
:10E5F0003A1651F03A1620F0B2E03B1661F409C029
:10E600000BBFF701779007C0C7010F9477FE782EF4
:10E6100002C0F7017080872D0F940DF22092C60082
:10E620008091C00086FFFCCF8091C0008064809301
:10E63000C000872D8052F401EF70F0708F3520F408
:10E64000E40DF51D708204C0E40DF51D8EE280839B
:10E650000894E11CF11C011D111D0894811C911CE2
:10E6600090E18916910409F0C2CF80E190E0A0E02A
:10E67000B0E0A80EB91ECA1EDB1E198AC2010F9493
:10E68000FAF10F94DCF16A94662009F072CF629679
:10E690000FB6F894DEBF0FBECDBFCF91DF911F91B3
:10E6A0000F91FF90EF90DF90CF90BF90AF909F9031
:10E6B0008F907F906F905F904F903F902F90089534
:10E6C0002F923F924F925F926F927F928F929F9282
:10E6D000AF92BF92CF92DF92EF92FF920F931F9370
:10E6E000DF93CF93CDB7DEB7CD53D1400FB6F894BB
:10E6F000DEBF0FBECDBF01E20EBF0FEF0DBF94B75F
:10E70000F894A89514BE80916000886180936000A1
:10E7100010926000789493FF05C0E0910002F091A0
:10E7200001021995279A2F9A8091C00082608093E8
:10E73000C00080E18093C40088E18093C1000000A4
:10E74000EE24FF24870144E0A42EB12CCC24DD2448
:10E7500024C0C5010197F1F70894E11CF11C011DCB
:10E76000111D21E2E2162EE4F20620E0020720E06D
:10E77000120718F031E0C32ED12CC801B70127ECE5
:10E780003BE140E050E00F9441FE611571058105C9
:10E79000910519F485B1805885B98091C00087FD35
:10E7A00003C0C114D104A9F2A6014F5F5F4FC25E3E
:10E7B000DE4F59834883CE51D140C25EDE4F8881FF
:10E7C0009981CE51D140019711F00D9410FEC05D9A
:10E7D000DE4F19821882C053D14060E0C15DDE4F28
:10E7E0001882CF52D14088249924C35DDE4F19820C
:10E7F0001882CD52D140C05EDE4F188219821A8233
:10E800001B82C052D140CE5CDE4F188219821A8220
:10E810001B82C253D140EE24FF2487010BBFF701B6
:10E8200007911691C45CDE4F19830883CC53D14005
:10E830000D940BFEC25EDE4F28813981CE51D1404E
:10E840002130310509F52091C600C25EDE4F1982E4
:10E850001882CE51D14022C02F5F3F4F4F4F5F4FA4
:10E86000213082E138078AE7480780E0580780F0C6
:10E87000C45CDE4FE881F981CC53D140EF5FFF4F9C
:10E8800019F0EE27FF27099420E030E040E050E047
:10E890008091C00087FFE0CF2091C600C35DDE4FAE
:10E8A00048815981CD52D1404F5F5F4FC35DDE4FEC
:10E8B00059834883CD52D140213209F063C64A3092
:10E8C000510508F05FC60894811C911C53E0851621
:10E8D000910409F059C600E010E018C081E280936D
:10E8E000C6008091C00086FFFCCF8091C00080648C
:10E8F0008093C0002F5F3F4F2931310579F70F9486
:10E90000DCF10F5F1F4F0530110519F020E030E0FA
:10E91000E5CF10920A0210920B0210920C02109294
:10E920000D02109206021092070210920802109235
:10E930000902109202021092030210920402109235
:10E9400005028FEE90EE60E00F94F5F180E191EE1C
:10E9500060E00F94C2F18091C00087FFFCCF9091DE
:10E96000C600903608F09F759032B8F09093C600BC
:10E970008091C00086FFFCCF8091C00080648093AE
:10E98000C000A0E2A093C6008091C00086FFFCCF2B
:10E990008091C00080648093C000983409F4D7C18E
:10E9A0009934B8F4923409F459C1933458F490333B
:10E9B00019F1903308F4E3C59F33A1F1903409F0C5
:10E9C000DEC5BDC0953409F470C1963409F0D7C5D1
:10E9D00098C1923509F42BC2933538F49C3409F46C
:10E9E000F5C1913509F0CBC518C2963509F445C279
:10E9F000993509F0C4C567C483E792EE62E00F94CD
:10EA0000F5F110920602109207021092080210927D
:10EA1000090210920A0210920B0210920C0210923C
:10EA20000D0213C18FE792EE62E00F94F5F18FEEC5
:10EA300090EE60E00F94F5F181E291EE60E00F94CA
:10EA4000C2F187EB91EE60E00F94F5F180E391EE77
:10EA500060E00F94C2F184EE90EE60E00F94F5F167
:10EA60008FE391EE60E00F94C2F186E090E061E008
:10EA700070E00F9434F20F94DCF18DE591EE60E0DC
:10EA80000F94C2F189EC91EE60E00F94F5F18EE401
:10EA900091EE60E00F94C2F183EC91EE60E00F9490
:10EAA000F5F18CE691EE60E00F94C2F18EE10F94E7
:10EAB0000DF288E90F940DF281E00F940DF20F949E
:10EAC000DCF18BE791EE60E00F94C2F119E0E0E039
:10EAD000F0E010935700E4918E2F0F940DF20F94F5
:10EAE000DCF18AE891EE60E00F94C2F1E3E0F0E03F
:10EAF00010935700E4918E2F0F940DF20F94DCF1D8
:10EB000089E991EE60E00F94C2F1E2E0F0E0109349
:10EB10005700E4918E2F0F940DF20F94DCF188EAE8
:10EB200091EE60E00F94C2F1E1E0F0E01093570045
:10EB30001491812F0F940DF20F94DCF107CF8BE825
:10EB400092EE62E00F94F5F18BE492EE60E00F94A8
:10EB5000F5F10F94DCF100E010E019C0C8016F2D51
:10EB60000F947FFEFF2031F489E492EE60E00F9471
:10EB7000C2F10BC0F092C6008091C00086FFFCCFAE
:10EB80008091C00080648093C0000F5F1F4FC80158
:10EB900081519F41A0E0B0E0ABBFFC01F790BAE229
:10EBA000FB1621F0E2E000301E07C1F60F94DCF105
:10EBB0000F94DCF187E592EE60E00F94F5F10F948D
:10EBC000DCF1CC24DD2400E010E01EC0C8010F946D
:10EBD00077FEF82E882331F489E492EE60E00F94FA
:10EBE000C2F10BC08093C6008091C00086FFFCCFAD
:10EBF0008091C00080648093C000FE1419F00894D6
:10EC0000C11CD11C0F5F1F4FC80181519F41A0E063
:10EC1000B0E0ABBFFC01E790FAE2EF1621F022E092
:10EC20000030120799F60F94DCF10F94DCF182E6C4
:10EC300092EE60E00F94C2F1C60161E070E00F94C3
:10EC400034F20F94DCF10F94DCF110920202109276
:10EC50000302109204021092050278CE89E992EE26
:10EC600062E00F94F5F1279A2F9A16C02F9880E052
:10EC700090E0E0EDF7E03197F1F7019684369105E9
:10EC8000C1F72F9A80E090E0E0EDF7E03197F1F7DF
:10EC9000019684369105C1F78091C00087FFE6CFC9
:10ECA0008091C00087FFFCCF64C485EA92EE62E0E9
:10ECB0000F94F5F140910202509103026091040219
:10ECC0007091050281E020E10F9491F2809102029F
:10ECD00090910302A0910402B091050280509F4FD1
:10ECE000AF4FBF4F8093020290930302A0930402A0
:10ECF000B093050280509041A040B04008F426CE69
:10ED0000A4CF83EB92EE62E00F94F5F140910602FE
:10ED100050910702609108027091090280E020E1A1
:10ED20000F9491F28091060290910702A09108023F
:10ED3000B091090280509F4FAF4FBF4F80930602A2
:10ED400090930702A0930802B0930902FFCD80ECD4
:10ED500092EE62E00F94F5F183E792EE60E00F949B
:10ED6000F5F18FE792EE60E00F94F5F18BE892EE0B
:10ED700060E00F94F5F189E992EE60E00F94F5F10F
:10ED800085EA92EE60E00F94F5F183EB92EE60E09D
:10ED90000F94F5F180EC92EE60E00F94F5F187ECC2
:10EDA00092EE60E00F94F5F188ED92EE60E00F9442
:10EDB000F5F18FED92EE60E00F94F5F18AEE92EEB0
:10EDC00060E00F94F5F183E093EEBDCD87EC92EE19
:10EDD00062E00F94F5F181E40F947BF282E40F94EA
:10EDE0007BF283E40F947BF284E40F947BF285E45E
:10EDF0000F947BF286E40F947BF287E40F947BF20E
:10EE000088E40F947BF28AE40F947BF28BE40F94F6
:10EE10007BF28CE40F947BF299CD88ED92EE62E068
:10EE20000F94F5F1772473948824992409C48FED05
:10EE300092EE62E00F94F5F140910A0250910B02BC
:10EE400060910C0270910D0282E020E10F9491F22A
:10EE500080910A0290910B02A0910C02B0910D02D8
:10EE600080509F4FAF4FBF4F80930A0290930B0289
:10EE7000A0930C02B0930D0269CD8AEE92EE62E08F
:10EE80000F94F5F184EE90EE60E00F94F5F18FECC5
:10EE900091EE60E00F94F5F1662477244301CC5D98
:10EEA000DE4F19821882C452D140D401C301B695F5
:10EEB000A79597958795CA5DDE4F88839983AA8326
:10EEC000BB83C652D140CC5DDE4FA881B981C4520C
:10EED000D1401196CC5DDE4FB983A883C452D14096
:10EEE000CD0162E070E00F9434F2B0E2B093C6005E
:10EEF0008091C00086FFFCCF8091C0008064809329
:10EF0000C000EDE2E093C6008091C00086FFFCCF18
:10EF10008091C00080648093C000F0E2F093C6004E
:10EF20008091C00086FFFCCF8091C00080648093F8
:10EF3000C000CA5DDE4FE880F9800A811B81C6529D
:10EF4000D140BB27A12F902F8F2D0F940DF2CA5DBA
:10EF5000DE4F8881C652D1400F940DF2B0E2FB2EF5
:10EF6000F092C6008091C00086FFFCCF8091C00067
:10EF700080648093C0000DE30093C6008091C000C0
:10EF800086FFFCCF8091C00080648093C00010E2B7
:10EF90001093C6008091C00086FFFCCF8091C00016
:10EFA00080648093C0008BBEF3012791C65DDE4F65
:10EFB0002883CA52D140A22EBB24CC24DD2408943D
:10EFC000611C711C811C911C8BBEF3018791282E42
:10EFD0003324442455240894611C711C811C911C09
:10EFE0008BBEF3013791C55DDE4F3883CB52D140E4
:10EFF0000894611C711C811C911C8BBEF30147910C
:10F00000C45DDE4F4883CC52D140ADEFEA2EAFEF66
:10F01000FA2EAFEF0A2FAFEF1A2F6E0C7F1C801E57
:10F02000911E142D032DF22CEE24EA0CFB1C0C1D5A
:10F030001D1D0F940DF220E22093C6008091C000A8
:10F0400086FFFCCF8091C00080648093C000C65DC5
:10F05000DE4F8881CA52D1400F940DF230E23093D6
:10F06000C6008091C00086FFFCCF8091C000806404
:10F070008093C000C45DDE4F8881CC52D1400F9494
:10F080000DF240E24093C6008091C00086FFFCCFA5
:10F090008091C00080648093C000C55DDE4F888190
:10F0A000CB52D1400F940DF250E25093C6008091A4
:10F0B000C00086FFFCCF8091C00080648093C000B8
:10F0C0008FEFE8168FEFF80680E0080780E018075A
:10F0D00031F484E092EE60E00F94C2F1DFC0D80119
:10F0E000C7018070907CA070B0708050904CA040A0
:10F0F000B040D1F52FEF3FE340E050E0E222F322B1
:10F1000004231523CA5DDE4FA880B980CA80DB8046
:10F11000C652D140AE0CBF1CC01ED11EAA0CBB1CD7
:10F12000CC1CDD1C8EE092EE60E00F94C2F1BB2798
:10F13000A12F902F8F2D0F940DF28E2D0F940DF285
:10F1400030E23093C6008091C00086FFFCCF8091F2
:10F15000C00080648093C0004EE34093C60080915D
:10F16000C00086FFFCCF87C08EE09EEFA0E0B0E03D
:10F17000E822F9220A231B239CE0E91694E9F90608
:10F1800090E0090790E0190709F088C0C45DDE4FE0
:10F19000A881CC52D140EA2EFF2400E010E0102FCD
:10F1A0000F2DFE2CEE24C55DDE4FB881CB52D14031
:10F1B000EB0EF11C011D111DD601C501817090706F
:10F1C000A070B070DC0199278827E80EF91E0A1F8D
:10F1D0001B1F20EF30E040E050E0A222B322C42207
:10F1E000D52241E1AA0CBB1CCC1CDD1C4A95D1F7F1
:10F1F000EA0CFB1C0C1D1D1D81E090E0A0E0B0E0BE
:10F20000282239224A225B2235E1220C331C441C7D
:10F21000551C3A95D1F7E20CF31C041D151D57013E
:10F220006801AA0CBB1CCC1CDD1C85E192EE60E0E1
:10F230000F94C2F1C801AA27BB270F940DF2BB2778
:10F24000A12F902F8F2D0F940DF28E2D0F940DF274
:10F2500090E29093C6008091C00086FFFCCF809121
:10F26000C00080648093C000AEE3A093C60080918C
:10F27000C00086FFFCCF8091C00080648093C000F6
:10F28000C601AA27BB270F940DF2BB27AD2D9C2DDD
:10F290008B2D0F940DF28A2D0F940DF20F94DCF14B
:10F2A000CC5DDE4FE881F981C452D140F99709F471
:10F2B0004DCBF4E0EF2EF12C012D112D6E0C7F1CA7
:10F2C000801E911EF2CD83E093EE62E00F94F5F183
:10F2D0008AE192EE60E00F94C2F18091C00087FF56
:10F2E000FCCF1091C6001F751093C6008091C0001E
:10F2F00086FFFCCF8091C00080648093C0000F9493
:10F30000DCF1812F81548A3108F036C1163409F4BA
:10F3100095C0173490F4133409F44EC0143430F40B
:10F320001134F1F0123409F01DC130C0143409F465
:10F3300059C0153409F016C16BC01A3409F4C4C0A1
:10F340001B3438F4173409F48FC0183409F00AC19B
:10F35000A1C01B3409F4D2C01C3409F003C1E8C0B9
:10F360008FEF81B90DC082B1809582B980E090E0C5
:10F37000E0EDF7E03197F1F70196883C9105C1F790
:10F380008091C00087FFEFCF12B8EFC08FEF84B934
:10F390000DC085B1809585B980E090E0E0EDF7E0A3
:10F3A0003197F1F70196883C9105C1F78091C00033
:10F3B00087FFEFCF15B8D9C08FEF87B90DC088B1DF
:10F3C000809588B980E090E0E0EDF7E03197F1F7C3
:10F3D0000196883C9105C1F78091C00087FFEFCF6F
:10F3E00018B8C3C08FEF8AB90DC08BB180958BB9A7
:10F3F00080E090E0E0EDF7E03197F1F70196883C8E
:10F400009105C1F78091C00087FFEFCF1BB8ADC059
:10F410008FEF8DB90DC08EB180958EB980E090E0F0
:10F42000E0EDF7E03197F1F70196883C9105C1F7DF
:10F430008091C00087FFEFCF1EB897C08FEF80BBD1
:10F440000DC081B3809581BB80E090E0E0EDF7E0F6
:10F450003197F1F70196883C9105C1F78091C00082
:10F4600087FFEFCF11BA81C08FEF83BB0DC084B38C
:10F47000809584BB80E090E0E0EDF7E03197F1F714
:10F480000196883C9105C1F78091C00087FFEFCFBE
:10F4900014BA6BC08FEF809301010FC080910201FD
:10F4A00080958093020180E090E0E0EDF7E03197F5
:10F4B000F1F70196883C9105C1F78091C00087FF64
:10F4C000EDCF1092020151C08FEF809304010FC065
:10F4D0008091050180958093050180E090E0E0ED4A
:10F4E000F7E03197F1F70196883C9105C1F78091DB
:10F4F000C00087FFEDCF1092050137C08FEF8093DA
:10F5000007010FC08091080180958093080180E079
:10F5100090E0E0EDF7E03197F1F70196883C910536
:10F52000C1F78091C00087FFEDCF109208011DC088
:10F530008FEF80930A010FC080910B01809580931B
:10F540000B0180E090E0E0EDF7E03197F1F70196F4
:10F55000883C9105C1F78091C00087FFEDCF1092E4
:10F560000B0103C085E292EEEEC98091C00087FFD7
:10F57000FCCF8091C600EAC988E392EEE4C98CE131
:10F5800091EEE1C988249924933011F1943028F444
:10F59000913089F09230B8F408C0953061F195301F
:10F5A000F0F0963009F048C043C02B3109F042C951
:10F5B00091E06BE13FC96227C15DDE4F2883CF52E6
:10F5C000D14092E037C9B22FA0E0622793E032C960
:10F5D000822F90E0A82BB92B622794E02BC92E3004
:10F5E00009F039C3622795E0C05DDE4F19821882A9
:10F5F000C053D1401FC9E1E0F0E0EC0FFD1FC05D3A
:10F60000DE4F08811981C053D140E00FF11F2083E4
:10F610000F5F1F4FC05DDE4F19830883C053D14079
:10F6200062270A171B0709F005C9D80196E002C92D
:10F63000261709F010C303C0973009F0FBC87724E0
:10F640009981933109F412C19431C8F4963009F4C8
:10F65000D8C0973050F4923009F406C1933009F4C1
:10F660006DC0913009F059C253C0913109F477C08F
:10F67000923108F0BBC0903109F04FC2F5C098310B
:10F6800009F487C0993150F4953109F4EFC09531F0
:10F6900008F4C6C1963109F040C2C2C19A3109F4DA
:10F6A0006CC09A3108F491C09B3109F45BC09D3164
:10F6B00009F033C29D81903359F48F81882311F46E
:10F6C0009EE11CC0813011F091E018C098E916C08D
:10F6D000892F807591F0903539F4E0E0F0E089E011
:10F6E0008093570094910AC0983539F4E3E0F0E034
:10F6F00089E080935700949101C090E01A821B82A8
:10F700008D818C831D829E831F8227E030E009C299
:10F710001A8288E08B8381E48C8386E58D8382E581
:10F720008E8389E48F8383E5888780E589878FE5E9
:10F730008A8782E38B872BE030E0F3C18A818139AD
:10F7400041F0823941F0803911F48FE005C080E04A
:10F7500003C082E001C08AE01A828B8344C0772410
:10F76000739482C08D81882311F48EE12CC0813086
:10F7700011F081E028C088E926C01A82E1E0F0E0BB
:10F7800089E08093570084918B831C8224E030E0D1
:10F79000C8C18B81803589F48C81883039F4E2E0EE
:10F7A000F0E089E08093570084910DC0E0E0F0E044
:10F7B00089E080935700849106C0E3E0F0E089E09F
:10F7C0008093570084911A82DFCF8D81836C99E0FA
:10F7D000E1E0F0E0082E90935700E89507B600FCB2
:10F7E000FDCF1A821B8223E030E09BC180EC8A832C
:10F7F000CE5CDE4F188219821A821B82C253D1401E
:10F800008EC18A8190E0A0E0B0E0582F44273327D2
:10F8100022278B8190E0A0E0B0E0DC0199278827C7
:10F82000282B392B4A2B5B2B8D8190E0A0E0B0E098
:10F83000282B392B4A2B5B2B8C8190E0A0E0B0E089
:10F84000BA2FA92F982F8827282B392B4A2B5B2BCF
:10F85000220F331F441F551FC05EDE4F288339839C
:10F860004A835B83C052D1401A8259C13A81C95C34
:10F87000DE4F3883C753D140CA5CDE4F1882C6536F
:10F88000D1408B81C82EDD24CA5CDE4F488159816E
:10F89000C653D140C42AD52A933109F082C0CE5C28
:10F8A000DE4F88819981AA81BB81C253D1408050AB
:10F8B000904CA340B04030F583E0CE5CDE4FE88052
:10F8C000F9800A811B81C253D140F70100935B008C
:10F8D00080935700E89507B600FCFDCFCE5CDE4F65
:10F8E000088119812A813B81C253D14000501F4FAA
:10F8F0002F4F3F4FCE5CDE4F088319832A833B8313
:10F90000C253D140C05EDE4F488159816A817B81FC
:10F91000C052D140DE011B9631E08C9111962C91A2
:10F9200011971296C75CDE4F2883C953D140C85C3B
:10F93000DE4F1882C853D14090E0C85CDE4FE881AA
:10F94000F981C853D1408E2B9F2B0C01FA01609393
:10F950005B0030935700E89511244E5F5F4F6F4F67
:10F960007F4F0EEFE02E0FEFF02ECE0CDF1CC114F8
:10F97000D10499F685E0C05EDE4F088119812A81A5
:10F980003B81C052D140F80120935B008093570027
:10F99000E89507B600FCFDCF81E180935700E8951C
:10F9A00035C0C05EDE4F88819981AA81BB81C0527B
:10F9B000D140B695A795979587957C018601ABE0D8
:10F9C000AA2EB12CAC0EBD1E0BC0D5016D915D01F0
:10F9D000C7010F947FFE0894E11CF11C01501040F8
:10F9E0000115110591F7A60160E070E0440F551F65
:10F9F000661F771FC05EDE4FE880F9800A811B8199
:10FA0000C052D1404E0D5F1D601F711F1A82C05E33
:10FA1000DE4F488359836A837B83C052D1407FC0C5
:10FA2000FA80C55CDE4FF882CB53D140C65CDE4F16
:10FA30001882CA53D1408B81C82EDD24C65CDE4FAC
:10FA400008811981CA53D140C02AD12A1A828981DA
:10FA5000BE016D5F7F4F843121F59601C05EDE4FA0
:10FA6000E880F9800A811B81C052D1400BBFF701A9
:10FA700087919691DB018C9311969C936E5F7F4FDB
:10FA8000D801C7010296A11DB11DC05EDE4F88835B
:10FA90009983AA83BB83C052D14022503040F1F6F3
:10FAA00036C0C05EDE4F288139814A815B81C052F9
:10FAB000D1400894C108D108760100E010E0089414
:10FAC000C11CD11C0894E11CF11C011D111DE20E8A
:10FAD000F31E041F151F21BDBB27A52F942F832FB5
:10FAE00082BD2F5F3F4F4F4F5F4FF89A80B5DB01CC
:10FAF0008D93BD012E153F054007510761F7C05E8C
:10FB0000DE4F288339834A835B83C052D1409601FC
:10FB10002D5F3F4FFB01108204C080EC8A8322E0FE
:10FB200030E08BE18093C6008091C00086FFFCCF5F
:10FB30008091C00080648093C000C15DDE4FF88179
:10FB4000CF52D140F093C6008091C00086FFFCCF19
:10FB50008091C00080648093C000432F3093C60022
:10FB60008091C00086FFFCCF8091C00080648093AC
:10FB7000C000922F2093C6008091C00086FFFCCF6A
:10FB80008091C00080648093C0008EE08093C600A6
:10FB90008091C00086FFFCCF8091C000806480937C
:10FBA000C00065E1C15DDE4FE880CF52D1406E25D7
:10FBB00069276427FE01319610C090819093C6009A
:10FBC0008091C00086FFFCCF31968091C000806498
:10FBD0008093C0006927215030402115310569F715
:10FBE0006093C6008091C00086FFFCCF8091C0006A
:10FBF00080648093C00085B1805885B9772081F4F6
:10FC0000C15DDE4F0881CF52D1400F5FC15DDE4F35
:10FC10000883CF52D14090E0A0E0B0E00D941AF4F8
:10FC200027982F9880E090E020ED37E0F901319798
:10FC3000F1F7019684369105C9F700008091C00064
:10FC40008D7F8093C00081E180935700E895EE2777
:10FC5000FF270994FFCF90E00D941AF497FB092E2B
:10FC600007260AD077FD04D02ED006D000201AF443
:10FC7000709561957F4F0895F6F7909581959F4F08
:10FC80000895A1E21A2EAA1BBB1BFD010DC0AA1FDD
:10FC9000BB1FEE1FFF1FA217B307E407F50720F0F5
:10FCA000A21BB30BE40BF50B661F771F881F991F70
:10FCB0001A9469F760957095809590959B01AC01B9
:10FCC000BD01CF010895AA1BBB1B51E107C0AA1FAC
:10FCD000BB1FA617B70710F0A61BB70B881F991FED
:10FCE0005A95A9F780959095BC01CD010895F99991
:10FCF000FECF92BD81BDF89A992780B50895262F31
:10FD0000F999FECF1FBA92BD81BD20BD0FB6F89400
:0EFD1000FA9AF99A0FBE01960895F894FFCF63
:040000033000E000E9
:00000001FF
