:10000000F5C0000023C1000021C100001FC1000095
:100010001DC100001BC1000019C1000017C1000074
:1000200015C1000013C1000011C100000FC1000084
:100030000DC100000BC1000009C1000007C1000094
:1000400005C100000AC7000001C10000FFC0000098
:10005000FDC00000FBC00000F9C000002DC600007C
:10006000F5C00000F3C50000C8C50000EFC00000E7
:10007000EDC00000EBC00000E9C00000E7C00000D8
:10008000BFC60000E3C00000E1C00000DFC0000008
:10009000DDC00000DBC00000D9C00000D7C00000F8
:1000A000D5C00000D3C000007EC60000CFC0000055
:1000B000CDC00000CBC00000C9C0000047C6000092
:1000C000C5C00000C3C00000C1C00000BFC0000028
:1000D000BDC00000BBC00000B9C00000B7C0000038
:1000E000B5C0000000000A0B02090C0D0E08070342
:1000F00004010000000000000000000000000000FB
:1001000000000000000000000000000000000000EF
:1001100012111000000000000000000000000000AC
:100120000000000000000000000000002200250088
:1001300028002B002E0031003400020100000501D0
:1001400008010B0100002100240027002A002D00D7
:100150003000330001010000040107010A01050518
:100160000505070508080808020202020A0A08082D
:10017000040404040101010101010101030303035B
:1001800003030303040707070C0C0C0C0C0C0C0CEA
:100190000202020206060606060606060B0B0B0BFB
:1001A0000B0B0B0B01021020200808102040102020
:1001B000408002010201080402010102040810202B
:1001C0004080804020100804020180040201804029
:1001D0002010080402010804020101020408102092
:1001E000408001020408102040805A0711241FBEDD
:1001F000CFEFD1E2DEBFCDBF00E00CBF12E0A0E048
:10020000B2E0E8E1F4E100E00BBF02C007900D921C
:10021000A23DB107D9F724E0A2EDB2E001C01D92E2
:10022000A432B207E1F710E0C6EFD0E000E006C06C
:1002300021970109802FFE010E94020AC53FD107C4
:1002400080E00807A9F7BAD60C940A0AD9CE90E044
:10025000FC01EC55FE4F2491825A9E4FFC01849183
:10026000882399F090E0880F991FFC01EC5BFE4F0A
:10027000A591B491FC01E65DFE4F859194918FB7F5
:10028000F894EC91E22BEC938FBF0895CF92DF921C
:10029000EF92FF92DC01A03282E0B807D4F5A53BD3
:1002A000B10514F0A4EBB0E04091220428E830E05E
:1002B000241B310947FD3395220F331F220F331FB3
:1002C0006901330FEE08FF084091230428E532E06E
:1002D000241B310947FD3395220F331F220F331F93
:1002E000032E000C440B550B2C193D094E095F09D8
:1002F000B7FF02C0B0E0A0E00E94BF0924EB30E0ED
:1003000040E050E00E949909C20ED31EE41EF51E83
:10031000D601E0912104E03380F52091220488E8A1
:1003200090E0821B910927FD9395880F991F880FF4
:10033000991FA817B90784F02091230488E592E05B
:10034000821B910927FD9395880F991F880F991F8C
:10035000A817B9070CF4CD010297880F991F4FB762
:10036000F8942E2F30E0F901EE0FFF1FE20FF31F7C
:10037000EC57FC4F928381834FBFFF90EF90DF904B
:10038000CF900895AF92BF92CF92DF92EF92FF92FB
:100390000F931F93CF93DF936C017B018B01040FAD
:1003A000151FEB015E01AE18BF08C017D10759F049
:1003B0006991D601ED91FC910190F081E02DC6018B
:1003C0001995892B79F7C501DF91CF911F910F9175
:1003D000FF90EF90DF90CF90BF90AF900895FC0119
:1003E000538D448D252F30E0842F90E0821B930B9A
:1003F000541710F0CF96089501970895FC01918D40
:10040000828D981761F0A28DAE0FBF2FB11D5D9642
:100410008C91928D9F5F9F73928F90E008958FEFE4
:100420009FEF0895FC01918D828D981731F0828D98
:10043000E80FF11D858D90E008958FEF9FEF0895EF
:10044000FC01918D228D892F90E0805C9F4F821B53
:1004500091098F739927089587EE92E0F1DF21E0EB
:10046000892B09F420E0822F0895FC01A48DA80FA8
:10047000B92FB11DA35ABF4F2C91848D90E00196E6
:100480008F739927848FA689B7892C93A089B18906
:100490008C91837080648C93938D848D981306C0A7
:1004A0000288F389E02D80818F7D80830895EF920B
:1004B000FF920F931F93CF93DF93EC0181E0888F1E
:1004C0009B8D8C8D98131AC0E889F989808185FFEE
:1004D00015C09FB7F894EE89FF896083E889F98990
:1004E00080818370806480839FBF81E090E0DF9192
:1004F000CF911F910F91FF90EF900895F62E0B8DE5
:1005000010E00F5F1F4F0F731127E02E8C8D8E119F
:100510000BC00FB607FCFACFE889F989808185FF07
:10052000F5CFCE01A2DFF2CFEB8DEC0FFD2FF11D49
:10053000E35AFF4FF0829FB7F8940B8FEA89FB894B
:1005400080818062D0CFCF93DF93EC01888D8823A8
:10055000B1F0AA89BB89E889F9898C9185FD03C02E
:10056000808186FD0CC00FB607FCF7CF8C9185FF0C
:10057000F2CF808185FFEDCFCE0177DFEACFDF912B
:10058000CF910895282F30E0F901EC51FF4F94915D
:10059000F901EC55FE4F4491225A3E4FF901249146
:1005A000222309F434C0992309F191509231F0F4D7
:1005B000E92FF0E08827E152FD4F8F4F23C710034A
:1005C0001403F10208030C03F60217031D032103B1
:1005D00027032B032F0335033903F6023D0343039F
:1005E0004703809180008F7780938000E22FF0E0B6
:1005F000EE0FFF1FE65DFE4FA591B4918FB7F89403
:10060000EC91611148C040954E234C938FBF0895E3
:10061000809180008F7DE8CF80918000877FE4CF3C
:1006200084B58F7784BDE2CF84B58F7DFBCF809179
:10063000B0008F778093B000D9CF8091B0008F7DCC
:10064000F9CF809190008F7780939000CFCF8091E9
:1006500090008F7DF9CF80919000877FF5CF8091BA
:10066000A0008F778093A000C1CF8091A0008F7DE4
:10067000F9CF8091A000877FF5CF809120018F77FF
:1006800080932001B3CF809120018F7DF9CF80919D
:100690002001877FF5CF4E2BB8CF1F93CF93DF93E9
:1006A000182FEB01D4DD209731F460E0812FDF912A
:1006B000CF911F9167CFCF3FD10511F461E0F6CF05
:1006C000E12FF0E0EC51FF4FE491E150E23108F00E
:1006D000B2C0F0E08827E159FC4F8F4F93C68103E9
:1006E00089038E039803A2031B04AC03B403BC0369
:1006F000C603D003DA03E903F3031B04FD03070475
:10070000110484B5806884BDC7BDDF91CF911F916E
:10071000089584B5806284BDC8BDF7CF8091800004
:10072000806880938000D0938900C0938800EDCFCB
:1007300080918000806280938000D0938B00C09372
:100740008A00E3CF80918000886080938000D093FE
:100750008D00C0938C00D9CF8091B00080688093C9
:10076000B000C093B300D1CF8091B000806280937D
:10077000B000C093B400C9CF80919000806880938E
:100780009000D0939900C0939800BFCF80919000C3
:10079000806280939000D0939B00C0939A00B5CF65
:1007A00080919000886080939000D0939D00C093CA
:1007B0009C00ABCF8091A00080688093A0008091C6
:1007C000A0008F7B8093A000D093A900C093A800C5
:1007D0009CCF8091A00080628093A000D093AB005A
:1007E000C093AA0092CF8091A00088608093A0005F
:1007F000D093AD00C093AC0088CF80912001806879
:1008000080932001D0932901C09328017ECF80914D
:100810002001806280932001D0932B01C0932A0194
:1008200074CF80912001886080932001D0932D01A6
:10083000C0932C016ACFC038D1050CF03FCF35CF23
:10084000CF93DF93C7E1D4E060E089819BDE60E075
:100850008A8198DE6FEF70E088811FDF1986DF9153
:10086000CF910895AF92BF92CF92DF92EF92FF9215
:100870000F931F93CF93DF936B017A01EC01CD525D
:10088000DD4F28813CE0389F8001399F100D1124F5
:10089000A0901404B12C27FF1FC0FB01118210820D
:1008A00088818F5F888388819801280F311D87FD9B
:1008B0003A95F6012A153B051CF488818C30BCF171
:1008C00080819181049680349C4908F471C0F601BE
:1008D0008081918104966EC088819801280F311D16
:1008E00087FD3A952A153B05DCF68881A801480F5B
:1008F000511D87FD5A95FA01EE0FFF1FE40FF51FFA
:10090000EC57FC4F808186FFCBCF8881F801E80F40
:10091000F11D87FDFA95CF01EE0FFF1FE80FF91FBC
:10092000EC57FC4F808160E08F732CDEB9CF808163
:1009300091812881A801420F511D27FD5A959A01E6
:10094000FA01EE0FFF1FE20FF31FEC57FC4F21815E
:100950003281820F931FF7019183808388819801F0
:10096000280F311D87FD3A95F901EE0FFF1FE20FA9
:10097000F31FEC57FC4F808186FF21C08881080F50
:10098000111D87FD1A95F801EE0FFF1FE00FF11FF3
:10099000EC57FC4F808161E08F73DF91CF911F9105
:1009A0000F91FF90EF90DF90CF90BF90AF90EACD86
:1009B00080E49CE9F701918380838FEF8883DF9146
:1009C000CF911F910F91FF90EF90DF90CF90BF904C
:1009D000AF900895FC0101900020E9F73197AF0135
:1009E000481B590BBC0187EE92E0CCCCF3DF87EEBD
:1009F00092E0A9CDEFDF82E192E0ECDF87EE92E0BA
:100A0000A2CDCF92DF92EF92FF920F931F93CF93DD
:100A1000DF93CDB7DEB7A1970FB6F894DEBF0FBE58
:100A2000CDBF282F30E050E040E019A28E010F5DCD
:100A30001F4F8AE0C82ED12CE12CF12CCA01B9013C
:100A4000A7019601A2D4605DF80162938F01211580
:100A500031054105510591F7309711F0CF01BADF0B
:100A600082E192E0B7DF87EE92E06DDDA1960FB6EE
:100A7000F894DEBF0FBECDBFDF91CF911F910F91D4
:100A8000FF90EF90DF90CF9008959F92AF92BF922A
:100A9000CF92DF92EF92FF920F931F93CF93DF934A
:100AA00099249394C2E0D0E001E010E083E0E82EC6
:100AB000F12C95E0C92ED12C24E0A22EB12C87EE8A
:100AC00092E0BEDC892B09F461C087EE92E096DCEF
:100AD0008093D20285E192E089DF8091D20291DF9A
:100AE0009091E2028091D202911143C08C3031F199
:100AF00068F48A30C9F08B3011F7B092E502A09209
:100B0000E4029092E20282E492E016C08E3041F15B
:100B1000F0F08F30A1F6F092E502E092E4029092BC
:100B2000E20287EA92E008C0D092E502C092E402B5
:100B30009092E2028CE292E05DDFC1CF1092E5027A
:100B40001092E4029092E20289E592E0F5CF1093D0
:100B5000E5020093E4029092E20280E792E0ECCF9B
:100B6000D093E502C093E4029092E2028BE892E017
:100B7000E3CF8093E3028CE192E038DF8091D202F0
:100B800040DF9092E6021092E20299CFDF91CF917E
:100B90001F910F91FF90EF90DF90CF90BF90AF909B
:100BA0009F90089559DC811170DF80E090E0892BDF
:100BB00049F080E090E0892B29F00E94000081112B
:100BC0000E94000080E090E0892B49F080E090E0F6
:100BD000892B29F00E94000081110E94000080E012
:100BE00090E0892B49F080E090E0892B29F00E9469
:100BF000000081110C94000008951F920F920FB60F
:100C00000F9211240BB60F922F933F934F935F9344
:100C10006F937F938F939F93AF93BF93EF93FF93C4
:100C200087EE92E022DCFF91EF91BF91AF919F910F
:100C30008F917F916F915F914F913F912F910F9085
:100C40000BBE0F900FBE0F901F9018951F920F9222
:100C50000FB60F9211240BB60F922F938F939F9381
:100C6000EF93FF93E091F702F091F8028081E09119
:100C7000FD02F091FE0282FD1DC090818091000373
:100C80008F5F8F7320910103821741F0E091000381
:100C9000F0E0E951FD4F958F80930003FF91EF91B4
:100CA0009F918F912F910F900BBE0F900FBE0F90C1
:100CB0001F9018958081F2CF1F920F920FB60F925E
:100CC00011242F933F938F939F93AF93BF93809162
:100CD000DC029091DD02A091DE02B091DF02309142
:100CE000DB0223E0230F2D3758F50196A11DB11D1E
:100CF0002093DB028093DC029093DD02A093DE025E
:100D0000B093DF028091D7029091D802A091D902CE
:100D1000B091DA020196A11DB11D8093D702909384
:100D2000D802A093D902B093DA02BF91AF919F91FC
:100D30008F913F912F910F900FBE0F901F9018959C
:100D400026E8230F0296A11DB11DD2CF1F920F924C
:100D50000FB60F9211240BB60F922F933F934F9320
:100D60005F936F937F938F939F93AF93BF93EF9313
:100D7000FF9348E251E064E271E090E080E072DDD0
:100D8000FF91EF91BF91AF919F918F917F916F9163
:100D90005F914F913F912F910F900BBE0F900FBE1F
:100DA0000F901F9018951F920F920FB60F9211245B
:100DB0000BB60F922F933F934F935F936F937F9355
:100DC0008F939F93AF93BF93EF93FF9348EA50E0C5
:100DD00064EA70E083E090E045DDFF91EF91BF9120
:100DE000AF919F918F917F916F915F914F913F91C3
:100DF0002F910F900BBE0F900FBE0F901F90189564
:100E00001F920F920FB60F9211240BB60F922F93D1
:100E10003F934F935F936F937F938F939F93AF9382
:100E2000BF93EF93FF9348E950E064E970E082E0FC
:100E300090E018DDFF91EF91BF91AF919F918F915D
:100E40007F916F915F914F913F912F910F900BBECA
:100E50000F900FBE0F901F9018951F920F920FB614
:100E60000F9211240BB60F922F933F934F935F93E2
:100E70006F937F938F939F93AF93BF93EF93FF9362
:100E800048E850E064E870E081E090E0EBDCFF913E
:100E9000EF91BF91AF919F918F917F916F915F91F2
:100EA0004F913F912F910F900BBE0F900FBE0F905F
:100EB0001F9018951092EA021092E90288EE93E0D2
:100EC000A0E0B0E08093EB029093EC02A093ED02DF
:100ED000B093EE0284E092E09093E8028093E70200
:100EE00085EC90E09093F4028093F30284EC90E020
:100EF0009093F6028093F50280EC90E09093F802D4
:100F00008093F70281EC90E09093FA028093F902CB
:100F100082EC90E09093FC028093FB0286EC90E0E0
:100F20009093FE028093FD02109200031092010341
:100F30001092020310920303809114048033D0F5C1
:100F400091E0980F909314048093210490E0FC01A9
:100F5000EE0FFF1FE80FF91FEC57FC4F88EB9BE0EB
:100F60009283818385E08093170484E08093180442
:100F700083E08093190484E680931A04109220047D
:100F800081E080931F0410921B0410921C041092A5
:100F90001D0410921E0485E05AD98091180457D977
:100FA0008091190454D989E690E0909316048093B7
:100FB000150408958FEF80932104D4CF789484B5DD
:100FC000826084BD84B5816084BD85B5826085BD45
:100FD00085B5816085BD80916E00816080936E00D3
:100FE00010928100809181008260809381008091C5
:100FF0008100816080938100809180008160809376
:1010000080008091B10084608093B1008091B00035
:1010100081608093B0008091910082608093910004
:101020008091910081608093910080919000816017
:10103000809390008091A10082608093A1008091B4
:10104000A10081608093A1008091A00081608093C5
:10105000A000809121018260809321018091210173
:101060008160809321018091200181608093200123
:1010700080917A00846080937A0080917A00826007
:1010800080937A0080917A00816080937A008091C9
:101090007A00806880937A001092C100E091F70294
:1010A000F091F80282E08083E091F302F091F40283
:1010B0001082E091F502F091F60280E180831092B7
:1010C000FF02E091FB02F091FC0286E08083E09158
:1010D000F902F091FA02808180618083E091F90247
:1010E000F091FA02808188608083E091F902F091AA
:1010F000FA02808180688083E091F902F091FA021F
:1011000080818F7D808380912104803308F04FC0DF
:101110008DE09DD880912104282F30E0F901EE0F59
:10112000FF1FE20FF31FEC57FC4F9081907C9D60F6
:10113000908310922204109223042CE0622F56D147
:10114000829FB001112430E020E0AB01420F531F19
:10115000FA01EE0FFF1FE40FF51FEC57FC4F9081D3
:1011600096FD17C02F5F3F4F2C30310571F781304E
:1011700009F048C01092800082E0809381001092B4
:10118000850010928400B19A80916F0082608093F4
:101190006F00E09121048E2F90E0FC01EE0FFF1F05
:1011A000E80FF91FEC57FC4F8081806480838091A9
:1011B0001504909116046AD810921A0401E010E008
:1011C0008091E6028823C9F08091E4029091E502C3
:1011D0008230910509F456C008F040C0009709F428
:1011E00058C0019709F44EC087EE92E0ACD9109236
:1011F000E6021092E3021092E2028CEC92E0FADB3B
:10120000D1DCDECF823061F41092900080939100A7
:10121000109295001092940088BB80937100B9CF12
:10122000833069F41092A00082E08093A1001092B4
:10123000A5001092A40089BB80937200AACF8111EF
:10124000A8CF1092200182E0809321011092250105
:10125000109224018ABB809373009BCF8430910548
:10126000B1F008F44CC0059709F0BECFC091E3027D
:101270008C2F90E0009709F03AC08091150490916E
:10128000160404D88091E30290E000D8ADCFD8DAFC
:10129000ABCF8091E30280931A04C091E002CC238B
:1012A000A1F0C13009F0A0CF60E0809118046AD9A4
:1012B00061E08091190466D960911A0470E0809110
:1012C0001704EBD9C09320048FCF61E080911804FC
:1012D00059D960E08091190455D960911A0470E0E1
:1012E00080911704DAD981E0809320047DCF0E9499
:1012F000460182EC92E07ADB8C2F83DBC3CF8091B6
:10130000E0029091E1022091E302211109C0892BB2
:1013100009F46ACF95DA1092E1021092E00264CFEC
:10132000019709F461CF8CDA1093E1020093E00297
:101330005BCF052E97FB16F400940FD057FD05D018
:1013400024D007FC02D046F408C050954095309553
:1013500021953F4F4F4F5F4F089590958095709521
:1013600061957F4F8F4F9F4F089531D0A59F900D6E
:10137000B49F900DA49F800D911D11240895B7FF77
:10138000F4CFF3DF821B930B0895A1E21A2EAA1B60
:10139000BB1BFD010DC0AA1FBB1FEE1FFF1FA21725
:1013A000B307E407F50720F0A21BB30BE40BF50B22
:1013B000661F771F881F991F1A9469F760957095AB
:1013C000809590959B01AC01BD01CF010895A29F2E
:1013D000B001B39FC001A39F700D811D1124911D09
:1013E000B29F700D811D1124911D0895991B79E004
:1013F00004C0991F961708F0961B881F7A95C9F7A5
:1014000080950895EE0FFF1F881F8BBF0790F69100
:08141000E02D1994F894FFCFC0
:10141800000000005702C201EF01A3022002FE01F2
:1014280012020D0A0073657269616C20646174614F
:101438002072656365697665643A20005475726E3A
:1014480020636F6D6D616E64207265636569766592
:1014580064004272616B6520636F6D6D616E64201C
:1014680072656365697665640044726976652063B0
:101478006F6D6D616E642072656365697665640081
:101488005475726E204C65667420436F6D6D616E85
:1014980064205265636569766564005475726E20D0
:1014A800726967687420636F6D6D616E6420726520
:1014B80063656976656400646972656374696F6EF3
:1014C80020636F6D6D616E64207265636569766512
:1014D80064005475726E696E673A20007469636BB4
:0214E800000002
:00000001FF
