:10000000F5C0000023C1000021C100001FC1000095
:100010001DC100001BC1000019C1000017C1000074
:1000200015C1000013C1000011C100000FC1000084
:100030000DC100000BC1000009C1000007C1000094
:1000400005C1000033C7000001C10000FFC000006F
:10005000FDC00000FBC00000F9C0000056C6000053
:10006000F5C000001CC60000F1C50000EFC0000094
:10007000EDC00000EBC00000E9C00000E7C00000D8
:10008000E8C60000E3C00000E1C00000DFC00000DF
:10009000DDC00000DBC00000D9C00000D7C00000F8
:1000A000D5C00000D3C00000A7C60000CFC000002C
:1000B000CDC00000CBC00000C9C0000070C6000069
:1000C000C5C00000C3C00000C1C00000BFC0000028
:1000D000BDC00000BBC00000B9C00000B7C0000038
:1000E000B5C0000000000A0B02090C0D0E08070342
:1000F00004010000000000000000000000000000FB
:1001000000000000000000000000000000000000EF
:1001100012111000000000000000000000000000AC
:100120000000000000000000000000002200250088
:1001300028002B002E0031003400020100000501D0
:1001400008010B0100002100240027002A002D00D7
:100150003000330001010000040107010A01050518
:100160000505070508080808020202020A0A08082D
:10017000040404040101010101010101030303035B
:1001800003030303040707070C0C0C0C0C0C0C0CEA
:100190000202020206060606060606060B0B0B0BFB
:1001A0000B0B0B0B01021020200808102040102020
:1001B000408002010201080402010102040810202B
:1001C0004080804020100804020180040201804029
:1001D0002010080402010804020101020408102092
:1001E00040800102040810204080830711241FBEB4
:1001F000CFEFD1E2DEBFCDBF00E00CBF12E0A0E048
:10020000B2E0EAE6F4E100E00BBF02C007900D9215
:10021000AC3CB107D9F724E0ACECB2E001C01D92D0
:10022000AE31B207E1F710E0C6EFD0E000E006C063
:1002300021970109802FFE010E942B0AC53FD1079B
:1002400080E00807A9F7E3D60C94330AD9CE90E0F2
:10025000FC01EC55FE4F2491825A9E4FFC01849183
:10026000882399F090E0880F991FFC01EC5BFE4F0A
:10027000A591B491FC01E65DFE4F859194918FB7F5
:10028000F894EC91E22BEC938FBF0895CF92DF921C
:10029000EF92FF92DC01A03282E0B807D4F5A53BD3
:1002A000B10514F0A4EBB0E040911C0428E830E064
:1002B000241B310947FD3395220F331F220F331FB3
:1002C0006901330FEE08FF0840911D0428E532E074
:1002D000241B310947FD3395220F331F220F331F93
:1002E000032E000C440B550B2C193D094E095F09D8
:1002F000B7FF02C0B0E0A0E00E94E80924EB30E0C4
:1003000040E050E00E94C209C20ED31EE41EF51E5A
:10031000D601E0911B04E03380F520911C0488E8AD
:1003200090E0821B910927FD9395880F991F880FF4
:10033000991FA817B90784F020911D0488E592E061
:10034000821B910927FD9395880F991F880F991F8C
:10035000A817B9070CF4CD010297880F991F4FB762
:10036000F8942E2F30E0F901EE0FFF1FE20FF31F7C
:10037000E258FC4F928381834FBFFF90EF90DF9054
:10038000CF900895AF92BF92CF92DF92EF92FF92FB
:100390000F931F93CF93DF936C017B018B01040FAD
:1003A000151FEB015E01AE18BF08C017D10759F049
:1003B0006991D601ED91FC910190F081E02DC6018B
:1003C0001995892B79F7C501DF91CF911F910F9175
:1003D000FF90EF90DF90CF90BF90AF900895FC0119
:1003E000538D448D252F30E0842F90E0821B930B9A
:1003F000541710F0CF96089501970895FC01918D40
:10040000828D981761F0A28DAE0FBF2FB11D5D9642
:100410008C91928D9F5F9F73928F90E008958FEFE4
:100420009FEF0895FC01918D828D981731F0828D98
:10043000E80FF11D858D90E008958FEF9FEF0895EF
:10044000FC01918D228D892F90E0805C9F4F821B53
:1004500091098F739927089581EE92E0F1DF21E0F1
:10046000892B09F420E0822F0895FC01A48DA80FA8
:10047000B92FB11DA35ABF4F2C91848D90E00196E6
:100480008F739927848FA689B7892C93A089B18906
:100490008C91837080648C93938D848D981306C0A7
:1004A0000288F389E02D80818F7D80830895EF920B
:1004B000FF920F931F93CF93DF93EC0181E0888F1E
:1004C0009B8D8C8D98131AC0E889F989808185FFEE
:1004D00015C09FB7F894EE89FF896083E889F98990
:1004E00080818370806480839FBF81E090E0DF9192
:1004F000CF911F910F91FF90EF900895F62E0B8DE5
:1005000010E00F5F1F4F0F731127E02E8C8D8E119F
:100510000BC00FB607FCFACFE889F989808185FF07
:10052000F5CFCE01A2DFF2CFEB8DEC0FFD2FF11D49
:10053000E35AFF4FF0829FB7F8940B8FEA89FB894B
:1005400080818062D0CFCF93DF93EC01888D8823A8
:10055000B1F0AA89BB89E889F9898C9185FD03C02E
:10056000808186FD0CC00FB607FCF7CF8C9185FF0C
:10057000F2CF808185FFEDCFCE0177DFEACFDF912B
:10058000CF910895282F30E0F901EC51FF4F94915D
:10059000F901EC55FE4F4491225A3E4FF901249146
:1005A000222309F434C0992309F191509231F0F4D7
:1005B000E92FF0E08827E152FD4F8F4F4CC7100321
:1005C0001403F10208030C03F60217031D032103B1
:1005D00027032B032F0335033903F6023D0343039F
:1005E0004703809180008F7780938000E22FF0E0B6
:1005F000EE0FFF1FE65DFE4FA591B4918FB7F89403
:10060000EC91611148C040954E234C938FBF0895E3
:10061000809180008F7DE8CF80918000877FE4CF3C
:1006200084B58F7784BDE2CF84B58F7DFBCF809179
:10063000B0008F778093B000D9CF8091B0008F7DCC
:10064000F9CF809190008F7780939000CFCF8091E9
:1006500090008F7DF9CF80919000877FF5CF8091BA
:10066000A0008F778093A000C1CF8091A0008F7DE4
:10067000F9CF8091A000877FF5CF809120018F77FF
:1006800080932001B3CF809120018F7DF9CF80919D
:100690002001877FF5CF4E2BB8CF1F93CF93DF93E9
:1006A000182FEB01D4DD209731F460E0812FDF912A
:1006B000CF911F9167CFCF3FD10511F461E0F6CF05
:1006C000E12FF0E0EC51FF4FE491E150E23108F00E
:1006D000B2C0F0E08827E159FC4F8F4FBCC68103C0
:1006E00089038E039803A2031B04AC03B403BC0369
:1006F000C603D003DA03E903F3031B04FD03070475
:10070000110484B5806884BDC7BDDF91CF911F916E
:10071000089584B5806284BDC8BDF7CF8091800004
:10072000806880938000D0938900C0938800EDCFCB
:1007300080918000806280938000D0938B00C09372
:100740008A00E3CF80918000886080938000D093FE
:100750008D00C0938C00D9CF8091B00080688093C9
:10076000B000C093B300D1CF8091B000806280937D
:10077000B000C093B400C9CF80919000806880938E
:100780009000D0939900C0939800BFCF80919000C3
:10079000806280939000D0939B00C0939A00B5CF65
:1007A00080919000886080939000D0939D00C093CA
:1007B0009C00ABCF8091A00080688093A0008091C6
:1007C000A0008F7B8093A000D093A900C093A800C5
:1007D0009CCF8091A00080628093A000D093AB005A
:1007E000C093AA0092CF8091A00088608093A0005F
:1007F000D093AD00C093AC0088CF80912001806879
:1008000080932001D0932901C09328017ECF80914D
:100810002001806280932001D0932B01C0932A0194
:1008200074CF80912001886080932001D0932D01A6
:10083000C0932C016ACFC038D1050CF03FCF35CF23
:10084000CF93DF93C1E1D4E060E089819BDE60E07B
:100850008A8198DE6FEF70E088811FDF1986DF9153
:10086000CF910895AF92BF92CF92DF92EF92FF9215
:100870000F931F93CF93DF936B017A01EC01C35366
:10088000DD4F28813CE0389F8001399F100D1124F5
:10089000A0900E04B12C27FF1FC0FB011182108213
:1008A00088818F5F888388819801280F311D87FD9B
:1008B0003A95F6012A153B051CF488818C30BCF171
:1008C00080819181049680349C4908F471C0F601BE
:1008D0008081918104966EC088819801280F311D16
:1008E00087FD3A952A153B05DCF68881A801480F5B
:1008F000511D87FD5A95FA01EE0FFF1FE40FF51FFA
:10090000E258FC4F808186FFCBCF8881F801E80F49
:10091000F11D87FDFA95CF01EE0FFF1FE80FF91FBC
:10092000E258FC4F808160E08F732CDEB9CF80816C
:1009300091812881A801420F511D27FD5A959A01E6
:10094000FA01EE0FFF1FE20FF31FE258FC4F218167
:100950003281820F931FF7019183808388819801F0
:10096000280F311D87FD3A95F901EE0FFF1FE20FA9
:10097000F31FE258FC4F808186FF21C08881080F59
:10098000111D87FD1A95F801EE0FFF1FE00FF11FF3
:10099000E258FC4F808161E08F73DF91CF911F910E
:1009A0000F91FF90EF90DF90CF90BF90AF90EACD86
:1009B00080E49CE9F701918380838FEF8883DF9146
:1009C000CF911F910F91FF90EF90DF90CF90BF904C
:1009D000AF9008959C01990F440B550B21503F4F48
:1009E0004F4F5F4FA6EABFEFF5D42EEF31E040E066
:1009F00050E0C8D4DA01C9018A569F4FAF4FBF4FAC
:100A00000895FC0101900020E9F73197AF01481BE0
:100A1000590BBC0181EE92E0B5CCF3DF81EE92E0A0
:100A200092CDEFDF82E192E0ECDF81EE92E08BCDC0
:100A3000CF92DF92EF92FF920F931F93CF93DF93AA
:100A4000CDB7DEB7A1970FB6F894DEBF0FBECDBF0E
:100A5000282F30E050E040E019A28E010F5D1F4FBB
:100A60008AE0C82ED12CE12CF12CCA01B901A701D2
:100A70009601B4D4605DF80162938F0121153105B0
:100A80004105510591F7309711F0CF01BADF82E1AE
:100A900092E0B7DF81EE92E056DDA1960FB6F894B2
:100AA000DEBF0FBECDBFDF91CF911F910F91FF90A1
:100AB000EF90DF90CF9008959F92AF92BF92CF9228
:100AC000DF92EF92FF920F931F93CF93DF939924BE
:100AD0009394C2E0D0E001E010E083E0E82EF12C36
:100AE00095E0C92ED12C24E0A22EB12C81EE92E00B
:100AF000A7DC892B09F473C081EE92E07FDC809340
:100B0000CC0285E192E089DF8091CC0291DF909167
:100B1000DC028091CC02911155C08C3079F180F4C7
:100B20008A30F9F08B3011F7B092DF02A092DE022A
:100B30009092DC0281EE92E006DD82E492E01CC03D
:100B40008E30A1F138F18F3089F6F092DF02E09219
:100B5000DE029092DC0281EE92E0F5DC87EA92E020
:100B60000BC0D092DF02C092DE029092DC0281EED6
:100B700092E0E9DC8CE292E054DFB8CF1092DF0221
:100B80001092DE029092DC0281EE92E0DCDC89E5DC
:100B900092E0F2CF1093DF020093DE029092DC022B
:100BA00081EE92E0D0DC80E792E0E6CFD093DF02E6
:100BB000C093DE029092DC0281EE92E0C4DC8BE80E
:100BC00092E0DACF8093DD028CE192E026DF809123
:100BD000CC022EDF9092E0021092DC0287CFDF91F0
:100BE000CF911F910F91FF90EF90DF90CF90BF902A
:100BF000AF909F90089530DC81115EDF80E090E03F
:100C0000892B49F080E090E0892B29F00E940000B8
:100C100081110E94000080E090E0892B49F080E083
:100C200090E0892B29F00E94000081110E940000B1
:100C300080E090E0892B49F080E090E0892B29F05A
:100C40000E94000081110C94000008951F920F92E1
:100C50000FB60F9211240BB60F922F933F934F9321
:100C60005F936F937F938F939F93AF93BF93EF9314
:100C7000FF9381EE92E0F9DBFF91EF91BF91AF918D
:100C80009F918F917F916F915F914F913F912F91A4
:100C90000F900BBE0F900FBE0F901F9018951F92D4
:100CA0000F920FB60F9211240BB60F922F938F93C2
:100CB0009F93EF93FF93E091F102F091F202808114
:100CC000E091F702F091F80282FD1DC090818091C1
:100CD000FA028F5F8F732091FB02821741F0E0913F
:100CE000FA02F0E0EF51FD4F958F8093FA02FF91E9
:100CF000EF919F918F912F910F900BBE0F900FBE90
:100D00000F901F9018958081F2CF1F920F920FB60F
:100D10000F9211242F933F938F939F93AF93BF9381
:100D20008091D6029091D702A091D802B091D902B9
:100D30003091D50223E0230F2D3758F50196A11DE0
:100D4000B11D2093D5028093D6029093D702A09331
:100D5000D802B093D9028091D1029091D202A09191
:100D6000D302B091D4020196A11DB11D8093D1028E
:100D70009093D202A093D302B093D402BF91AF91CB
:100D80009F918F913F912F910F900FBE0F901F90C9
:100D9000189526E8230F0296A11DB11DD2CF1F92F0
:100DA0000F920FB60F9211240BB60F922F933F9311
:100DB0004F935F936F937F938F939F93AF93BF9363
:100DC000EF93FF9348E251E064E271E090E080E04D
:100DD00049DDFF91EF91BF91AF919F918F917F91ED
:100DE0006F915F914F913F912F910F900BBE0F909C
:100DF0000FBE0F901F9018951F920F920FB60F9273
:100E000011240BB60F922F933F934F935F936F93E1
:100E10007F938F939F93AF93BF93EF93FF9348EA92
:100E200050E064EA70E083E090E01CDDFF91EF9118
:100E3000BF91AF919F918F917F916F915F914F91F2
:100E40003F912F910F900BBE0F900FBE0F901F90F0
:100E500018951F920F920FB60F9211240BB60F9296
:100E60002F933F934F935F936F937F938F939F93B2
:100E7000AF93BF93EF93FF9348E950E064E970E0CC
:100E800082E090E0EFDCFF91EF91BF91AF919F91F5
:100E90008F917F916F915F914F913F912F910F9023
:100EA0000BBE0F900FBE0F901F9018951F920F92C0
:100EB0000FB60F9211240BB60F922F933F934F93BF
:100EC0005F936F937F938F939F93AF93BF93EF93B2
:100ED000FF9348E850E064E870E081E090E0C2DC15
:100EE000FF91EF91BF91AF919F918F917F916F9102
:100EF0005F914F913F912F910F900BBE0F900FBEBE
:100F00000F901F9018951092E4021092E30288EE61
:100F100093E0A0E0B0E08093E5029093E602A09316
:100F2000E702B093E80284E092E09093E2028093BB
:100F3000E10285EC90E09093EE028093ED0284EC68
:100F400090E09093F0028093EF0280EC90E0909319
:100F5000F2028093F10281EC90E09093F40280938E
:100F6000F30282EC90E09093F6028093F50286EC17
:100F700090E09093F8028093F7021092FA02109298
:100F8000FB021092FC021092FD0280910E0480334D
:100F9000D0F591E0980F90930E0480931B0490E09D
:100FA000FC01EE0FFF1FE80FF91FE258FC4F88EB22
:100FB0009BE09283818385E08093110484E0809399
:100FC000120483E08093130484E680931404109247
:100FD0001A0481E0809319041092150410921604EB
:100FE000109217041092180485E031D980911204F0
:100FF0002ED9809113042BD989E690E090931004A8
:1010000080930F0408958FEF80931B04D4CF7894BE
:1010100084B5826084BD84B5816084BD85B58260FD
:1010200085BD85B5816085BD80916E0081608093AE
:101030006E00109281008091810082608093810017
:101040008091810081608093810080918000816027
:10105000809380008091B10084608093B100809182
:10106000B00081608093B000809191008260809395
:101070009100809191008160809391008091900017
:101080008160809390008091A10082608093A10094
:101090008091A10081608093A1008091A000816077
:1010A0008093A00080912101826080932101809132
:1010B00021018160809321018091200181608093D2
:1010C000200180917A00846080937A0080917A0078
:1010D000826080937A0080917A00816080937A00A8
:1010E00080917A00806880937A001092C100E0912C
:1010F000F102F091F20282E08083E091ED02F09142
:10110000EE021082E091EF02F091F00280E1808324
:101110001092F902E091F502F091F60286E08083E8
:10112000E091F302F091F402808180618083E0918C
:10113000F302F091F402808188608083E091F302F1
:10114000F091F402808180688083E091F302F09155
:10115000F40280818F7D808380911B04803308F0AE
:101160004FC08DE074D880911B04282F30E0F90126
:10117000EE0FFF1FE20FF31FE258FC4F9081907CAF
:101180009D60908310921C0410921D042CE0622F2D
:1011900056D1829FB001112430E020E0AB01420F14
:1011A000531FFA01EE0FFF1FE40FF51FE258FC4F2B
:1011B000908196FD17C02F5F3F4F2C30310571F79E
:1011C000813009F045C01092800082E08093810058
:1011D0001092850010928400B19A80916F00826015
:1011E00080936F00E0911B048E2F90E0FC01EE0FC6
:1011F000FF1FE80FF91FE258FC4F80818064808355
:1012000080910F049091100441D81092140401E0D1
:1012100010E08091E0028823C9F08091DE02909175
:10122000DF028230910509F454C008F03DC00097F8
:1012300009F458C0019709F44CC081EE92E083D9BB
:101240001092E0021092DD021092DC02D4DCE1CFB9
:10125000823061F41092900080939100109295007A
:101260001092940088BB80937100BCCF833069F4E6
:101270001092A00082E08093A1001092A50010922D
:10128000A40089BB80937200ADCF8111ABCF1092C7
:10129000200182E080932101109225011092240107
:1012A0008ABB809373009ECF84309105C9F008F407
:1012B0004FC0059709F0C1CFC091DD028C2F90E09F
:1012C000009709F03DC080910F04909110040E9496
:1012D00046018091DD0290E07DDB0E944601ADCFAA
:1012E000AFDAABCF8091DD0280931404C091DA02B3
:1012F000CC23A1F0C13009F0A0CF60E080911204AE
:1013000041D961E0809113043DD96091140470E0EB
:1013100080911104C2D9C0931A048FCF61E08091EB
:10132000120430D960E0809113042CD96091140428
:1013300070E080911104B1D981E080931A047DCFCF
:101340000E94460182EC92E068DB8C2F71DBC1CFFA
:101350008091DA029091DB022091DD02211109C017
:10136000892B09F46ACF6CDA1092DB021092DA0250
:1013700064CF019709F461CF63DA1093DB02009325
:10138000DA025BCF052E97FB16F400940FD057FDC1
:1013900005D024D007FC02D046F408C050954095F3
:1013A000309521953F4F4F4F5F4F08959095809511
:1013B000709561957F4F8F4F9F4F089531D0A59FB6
:1013C000900DB49F900DA49F800D911D1124089540
:1013D000B7FFF4CFF3DF821B930B0895A1E21A2E1F
:1013E000AA1BBB1BFD010DC0AA1FBB1FEE1FFF1FC9
:1013F000A217B307E407F50720F0A21BB30BE40B19
:10140000F50B661F771F881F991F1A9469F760955F
:101410007095809590959B01AC01BD01CF01089519
:10142000A29FB001B39FC001A39F700D811D112425
:10143000911DB29F700D811D1124911D0895991B5E
:1014400079E004C0991F961708F0961B881F7A95BB
:10145000C9F780950895EE0FFF1F881F8BBF079077
:0A146000F691E02D1994F894FFCFE7
:10146A00000000005702C201EF01A3022002FE01A0
:10147A0012020D0A0073657269616C2064617461FD
:10148A002072656365697665643A20005475726EE8
:10149A0020636F6D6D616E64207265636569766540
:1014AA0064004272616B6520636F6D6D616E6420CA
:1014BA00726563656976656400447269766520635E
:1014CA006F6D6D616E64207265636569766564002F
:1014DA005475726E204C65667420436F6D6D616E33
:1014EA0064205265636569766564005475726E207E
:1014FA00726967687420636F6D6D616E64207265CE
:10150A0063656976656400646972656374696F6EA0
:10151A0020636F6D6D616E642072656365697665BF
:0C152A0064005475726E696E673A200010
:00000001FF
